:100000000C942A000C940C020C940C020C940C021C
:100010000C940C020C940C020C940C020C940C0228
:100020000C940C020C940C020C940C020C940C0218
:100030000C940C020C940C020C940C020C940C0208
:100040000C940C020C940C020C940C020C940C02F8
:100050000C940C0211241FBECFE5D8E0DEBFCDBF4B
:0C0060000E9421010C943400F894FFCFA2
:10006C00452BC9F181309105A9F01CF4892B39F08D
:10007C00089582309105C9F0039711F108952AB3C0
:10008C0081E090E002C0880F991F6A95E2F7822BFD
:10009C008ABB089527B381E090E002C0880F991FB6
:1000AC006A95E2F7822B87BB089524B381E090E038
:1000BC0002C0880F991F6A95E2F7822B84BB0895C2
:1000CC0021B381E090E002C0880F991F6A95E2F796
:1000DC00822B81BB089581309105B1F01CF4892BE2
:1000EC0039F0089582309105D9F0039729F10895DC
:1000FC002AB381E090E002C0880F991F6A95E2F75D
:10010C00809582238ABB089527B381E090E002C0DA
:10011C00880F991F6A95E2F78095822387BB089513
:10012C0024B381E090E002C0880F991F6A95E2F732
:10013C008095822384BB089521B381E090E002C0B6
:10014C00880F991F6A95E2F78095822381BB0895E9
:10015C0081309105B9F515BA2FEF87EA91E6215058
:10016C0080409040E1F700C0000081E085BB2FEF9C
:10017C0087EA91E6215080409040E1F700C00000F2
:10018C0082E085BB2FEF87EA91E6215080409040BA
:10019C00E1F700C0000084E085BB2FEF87EA91E611
:1001AC00215080409040E1F700C0000088E085BB02
:1001BC002FEF87EA91E6215080409040E1F700C094
:1001CC00000008950297B1F588E085BB2FEF87EA10
:1001DC0091E6215080409040E1F700C0000084E09F
:1001EC0085BB2FEF87EA91E6215080409040E1F7E4
:1001FC0000C0000082E085BB2FEF87EA91E621501A
:10020C0080409040E1F700C0000081E085BB2FEFFB
:10021C0087EA91E6215080409040E1F700C0000051
:10022C0015BA2FEF87EA91E6215080409040E1F714
:06023C0000C0000008955F
:100242000E9407020E94D50160E070E081E090E028
:100252000E946601892B19F00E949E01F5CF61E090
:1002620070E083E090E00E946601892B49F081E012
:1002720090E00E94AE0081E090E00E94EE01E4CFA7
:1002820062E070E083E090E00E946601892B49F011
:1002920082E090E00E94AE0081E090E00E94EE01D8
:1002A200D3CF63E070E083E090E00E946601892B87
:1002B20049F082E090E00E94AE0080E090E00E946F
:0A02C200EE01C2CF0E940E02BFCF72
:1002CC0081309105A1F01CF4892B39F02EC08230BD
:1002DC009105B9F00397F9F028C089B390E002C0FA
:1002EC00959587956A95E2F781709927089586B35D
:1002FC0090E002C0959587956A95E2F781709927F1
:10030C00089583B390E002C0959587956A95E2F7BE
:10031C0081709927089580B390E002C095958795D8
:10032C006A95E2F781709927089580E090E008952E
:10033C0015BA2FEF87EA91E6215080409040E1F703
:10034C0000C0000081E085BB2FEF87EA91E62150C9
:10035C0080409040E1F700C0000082E085BB2FEFA9
:10036C0087EA91E6215080409040E1F700C0000000
:10037C0084E085BB2FEF87EA91E6215080409040C6
:10038C00E1F700C0000088E085BB2FEF87EA91E61B
:0E039C00215080409040E1F700C0000008951D
:1003AA0040E050E060E070E082E090E00E943600B9
:1003BA0040E050E061E070E082E090E00E943600A8
:1003CA0040E050E062E070E082E090E00E94360097
:0203DA00089584
:1003DC008130910551F42FEF8FE097E2215080404E
:1003EC009040E1F700C000000895892B49F42FEFED
:1003FC0083E294EF215080409040E1F700C0000070
:02040C00089551
:0A040E00B898B998BA98BB98089501
:040418000C94000040
:04041C0015BA089570
:00000001FF
